{
  "contractName": "ProofOfExistence1",
  "abi": [
    {
      "constant": true,
      "inputs": [],
      "name": "proof",
      "outputs": [
        {
          "name": "",
          "type": "bytes32"
        }
      ],
      "payable": false,
      "stateMutability": "view",
      "type": "function"
    },
    {
      "constant": false,
      "inputs": [
        {
          "name": "document",
          "type": "string"
        }
      ],
      "name": "notarise",
      "outputs": [],
      "payable": false,
      "stateMutability": "nonpayable",
      "type": "function"
    },
    {
      "constant": true,
      "inputs": [
        {
          "name": "document",
          "type": "string"
        }
      ],
      "name": "proofFor",
      "outputs": [
        {
          "name": "",
          "type": "bytes32"
        }
      ],
      "payable": false,
      "stateMutability": "pure",
      "type": "function"
    }
  ],
  "bytecode": "0x608060405234801561001057600080fd5b50610343806100206000396000f3fe608060405234801561001057600080fd5b50600436106100415760003560e01c8063a58811d614610046578063f6c1acdf14610101578063faf924cf146101d0575b600080fd5b6100ff6004803603602081101561005c57600080fd5b810190808035906020019064010000000081111561007957600080fd5b82018360208201111561008b57600080fd5b803590602001918460018302840111640100000000831117156100ad57600080fd5b91908080601f016020809104026020016040519081016040528093929190818152602001838380828437600081840152601f19601f8201169050808301925050505050505091929192905050506101ee565b005b6101ba6004803603602081101561011757600080fd5b810190808035906020019064010000000081111561013457600080fd5b82018360208201111561014657600080fd5b8035906020019184600183028401116401000000008311171561016857600080fd5b91908080601f016020809104026020016040519081016040528093929190818152602001838380828437600081840152601f19601f820116905080830192505050505050509192919290505050610200565b6040518082815260200191505060405180910390f35b6101d8610311565b6040518082815260200191505060405180910390f35b6101f781610200565b60008190555050565b60006002826040516020018082805190602001908083835b6020831061023b5780518252602082019150602081019050602083039250610218565b6001836020036101000a0380198251168184511680821785525050505050509050019150506040516020818303038152906040526040518082805190602001908083835b602083106102a2578051825260208201915060208101905060208303925061027f565b6001836020036101000a038019825116818451168082178552505050505050905001915050602060405180830381855afa1580156102e4573d6000803e3d6000fd5b5050506040513d60208110156102f957600080fd5b81019080805190602001909291905050509050919050565b6000548156fea165627a7a723058203c3abcbc2f6c1f76e43a402b28df9d8b48afd2350e88456f9fa7c3f7e167a8ff0029",
  "source": "pragma solidity ^0.5.0;\n\n\ncontract ProofOfExistence1 {\n  bytes32 public proof;\n\n  function notarise(string memory document) public {\n    proof = proofFor(document);\n  }\n\n  function proofFor(string memory document) public pure returns (bytes32) {\n    return sha256(abi.encodePacked(document));\n  }\n\n}\n",
  "sourcePath": "/Users/tterado/Desktop/consensys_course_exercises/proof-of-existence/contracts/ProofOfExistence1.sol",
  "compiler": {
    "name": "solc",
    "version": "0.5.8+commit.23d335f2.Emscripten.clang"
  },
  "schemaVersion": "3.0.11",
  "updatedAt": "2019-07-17T06:33:53.139Z",
  "devdoc": {
    "methods": {}
  },
  "userdoc": {
    "methods": {}
  }
}